{
  "contractName": "VendingMachine",
  "abi": [
    {
      "inputs": [],
      "stateMutability": "nonpayable",
      "type": "constructor"
    },
    {
      "inputs": [
        {
          "internalType": "address",
          "name": "",
          "type": "address"
        }
      ],
      "name": "dounutCount",
      "outputs": [
        {
          "internalType": "uint256",
          "name": "",
          "type": "uint256"
        }
      ],
      "stateMutability": "view",
      "type": "function",
      "constant": true
    },
    {
      "inputs": [
        {
          "internalType": "address",
          "name": "",
          "type": "address"
        }
      ],
      "name": "laysCount",
      "outputs": [
        {
          "internalType": "uint256",
          "name": "",
          "type": "uint256"
        }
      ],
      "stateMutability": "view",
      "type": "function",
      "constant": true
    },
    {
      "inputs": [],
      "name": "owner",
      "outputs": [
        {
          "internalType": "address",
          "name": "",
          "type": "address"
        }
      ],
      "stateMutability": "view",
      "type": "function",
      "constant": true
    },
    {
      "inputs": [
        {
          "internalType": "address",
          "name": "",
          "type": "address"
        }
      ],
      "name": "refresherCount",
      "outputs": [
        {
          "internalType": "uint256",
          "name": "",
          "type": "uint256"
        }
      ],
      "stateMutability": "view",
      "type": "function",
      "constant": true
    },
    {
      "inputs": [],
      "name": "getRefresherStockLeft",
      "outputs": [
        {
          "internalType": "uint256",
          "name": "",
          "type": "uint256"
        }
      ],
      "stateMutability": "view",
      "type": "function",
      "constant": true
    },
    {
      "inputs": [],
      "name": "getDonutStockLeft",
      "outputs": [
        {
          "internalType": "uint256",
          "name": "",
          "type": "uint256"
        }
      ],
      "stateMutability": "view",
      "type": "function",
      "constant": true
    },
    {
      "inputs": [],
      "name": "getLaysStockLeft",
      "outputs": [
        {
          "internalType": "uint256",
          "name": "",
          "type": "uint256"
        }
      ],
      "stateMutability": "view",
      "type": "function",
      "constant": true
    },
    {
      "inputs": [
        {
          "internalType": "uint256",
          "name": "refresherPieces",
          "type": "uint256"
        }
      ],
      "name": "restockRehresher",
      "outputs": [],
      "stateMutability": "nonpayable",
      "type": "function"
    },
    {
      "inputs": [
        {
          "internalType": "uint256",
          "name": "donutPieces",
          "type": "uint256"
        }
      ],
      "name": "restockDonut",
      "outputs": [],
      "stateMutability": "nonpayable",
      "type": "function"
    },
    {
      "inputs": [
        {
          "internalType": "uint256",
          "name": "laysPieces",
          "type": "uint256"
        }
      ],
      "name": "restockLays",
      "outputs": [],
      "stateMutability": "nonpayable",
      "type": "function"
    },
    {
      "inputs": [
        {
          "internalType": "uint256",
          "name": "amountRefresher",
          "type": "uint256"
        }
      ],
      "name": "numberOfRefresher",
      "outputs": [],
      "stateMutability": "payable",
      "type": "function",
      "payable": true
    },
    {
      "inputs": [
        {
          "internalType": "uint256",
          "name": "amountDonut",
          "type": "uint256"
        }
      ],
      "name": "numberOfDonut",
      "outputs": [],
      "stateMutability": "payable",
      "type": "function",
      "payable": true
    },
    {
      "inputs": [
        {
          "internalType": "uint256",
          "name": "amountLays",
          "type": "uint256"
        }
      ],
      "name": "numberOfLays",
      "outputs": [],
      "stateMutability": "payable",
      "type": "function",
      "payable": true
    }
  ],
  "bytecode": "0x608060405234801561001057600080fd5b50336000806101000a81548173ffffffffffffffffffffffffffffffffffffffff021916908373ffffffffffffffffffffffffffffffffffffffff1602179055506037600160003073ffffffffffffffffffffffffffffffffffffffff1673ffffffffffffffffffffffffffffffffffffffff168152602001908152602001600020819055506032600260003073ffffffffffffffffffffffffffffffffffffffff1673ffffffffffffffffffffffffffffffffffffffff168152602001908152602001600020819055506046600360003073ffffffffffffffffffffffffffffffffffffffff1673ffffffffffffffffffffffffffffffffffffffff168152602001908152602001600020819055506111de8061012f6000396000f3fe6080604052600436106100c25760003560e01c806396d31f051161007f578063d491ee2411610059578063d491ee241461023f578063d895e3d014610268578063db7214ec14610291578063e4e7b24f146102ce576100c2565b806396d31f05146101bb578063b68cbcb7146101e6578063bd14746814610223576100c2565b80632293d124146100c7578063339f4e7a146100e357806343e79120146101205780636d7ff2131461013c57806380412b99146101655780638da5cb5b14610190575b600080fd5b6100e160048036038101906100dc9190610bbc565b6102f9565b005b3480156100ef57600080fd5b5061010a60048036038101906101059190610c47565b61047f565b6040516101179190610c83565b60405180910390f35b61013a60048036038101906101359190610bbc565b610497565b005b34801561014857600080fd5b50610163600480360381019061015e9190610bbc565b61061d565b005b34801561017157600080fd5b5061017a610704565b6040516101879190610c83565b60405180910390f35b34801561019c57600080fd5b506101a561074b565b6040516101b29190610cad565b60405180910390f35b3480156101c757600080fd5b506101d061076f565b6040516101dd9190610c83565b60405180910390f35b3480156101f257600080fd5b5061020d60048036038101906102089190610c47565b6107b6565b60405161021a9190610c83565b60405180910390f35b61023d60048036038101906102389190610bbc565b6107ce565b005b34801561024b57600080fd5b5061026660048036038101906102619190610bbc565b610954565b005b34801561027457600080fd5b5061028f600480360381019061028a9190610bbc565b610a3b565b005b34801561029d57600080fd5b506102b860048036038101906102b39190610c47565b610b22565b6040516102c59190610c83565b60405180910390f35b3480156102da57600080fd5b506102e3610b3a565b6040516102f09190610c83565b60405180910390f35b66071afd498d00008161030c9190610cf7565b34101561034e576040517f08c379a000000000000000000000000000000000000000000000000000000000815260040161034590610dfa565b60405180910390fd5b80600260003073ffffffffffffffffffffffffffffffffffffffff1673ffffffffffffffffffffffffffffffffffffffff1681526020019081526020016000205410156103d0576040517f08c379a00000000000000000000000000000000000000000000000000000000081526004016103c790610e8c565b60405180910390fd5b80600260003073ffffffffffffffffffffffffffffffffffffffff1673ffffffffffffffffffffffffffffffffffffffff168152602001908152602001600020600082825461041f9190610eac565b9250508190555080600260003373ffffffffffffffffffffffffffffffffffffffff1673ffffffffffffffffffffffffffffffffffffffff16815260200190815260200160002060008282546104759190610ee0565b9250508190555050565b60016020528060005260406000206000915090505481565b66071afd498d0000816104aa9190610cf7565b3410156104ec576040517f08c379a00000000000000000000000000000000000000000000000000000000081526004016104e390610dfa565b60405180910390fd5b80600160003073ffffffffffffffffffffffffffffffffffffffff1673ffffffffffffffffffffffffffffffffffffffff16815260200190815260200160002054101561056e576040517f08c379a000000000000000000000000000000000000000000000000000000000815260040161056590610f86565b60405180910390fd5b80600160003073ffffffffffffffffffffffffffffffffffffffff1673ffffffffffffffffffffffffffffffffffffffff16815260200190815260200160002060008282546105bd9190610eac565b9250508190555080600160003373ffffffffffffffffffffffffffffffffffffffff1673ffffffffffffffffffffffffffffffffffffffff16815260200190815260200160002060008282546106139190610ee0565b9250508190555050565b60008054906101000a900473ffffffffffffffffffffffffffffffffffffffff1673ffffffffffffffffffffffffffffffffffffffff163373ffffffffffffffffffffffffffffffffffffffff16146106ab576040517f08c379a00000000000000000000000000000000000000000000000000000000081526004016106a290611018565b60405180910390fd5b80600160003073ffffffffffffffffffffffffffffffffffffffff1673ffffffffffffffffffffffffffffffffffffffff16815260200190815260200160002060008282546106fa9190610ee0565b9250508190555050565b6000600160003073ffffffffffffffffffffffffffffffffffffffff1673ffffffffffffffffffffffffffffffffffffffff16815260200190815260200160002054905090565b60008054906101000a900473ffffffffffffffffffffffffffffffffffffffff1681565b6000600260003073ffffffffffffffffffffffffffffffffffffffff1673ffffffffffffffffffffffffffffffffffffffff16815260200190815260200160002054905090565b60036020528060005260406000206000915090505481565b66038d7ea4c68000816107e19190610cf7565b341015610823576040517f08c379a000000000000000000000000000000000000000000000000000000000815260040161081a906110f6565b60405180910390fd5b80600360003073ffffffffffffffffffffffffffffffffffffffff1673ffffffffffffffffffffffffffffffffffffffff1681526020019081526020016000205410156108a5576040517f08c379a000000000000000000000000000000000000000000000000000000000815260040161089c90611188565b60405180910390fd5b80600360003073ffffffffffffffffffffffffffffffffffffffff1673ffffffffffffffffffffffffffffffffffffffff16815260200190815260200160002060008282546108f49190610eac565b9250508190555080600360003373ffffffffffffffffffffffffffffffffffffffff1673ffffffffffffffffffffffffffffffffffffffff168152602001908152602001600020600082825461094a9190610ee0565b9250508190555050565b60008054906101000a900473ffffffffffffffffffffffffffffffffffffffff1673ffffffffffffffffffffffffffffffffffffffff163373ffffffffffffffffffffffffffffffffffffffff16146109e2576040517f08c379a00000000000000000000000000000000000000000000000000000000081526004016109d990611018565b60405180910390fd5b80600360003073ffffffffffffffffffffffffffffffffffffffff1673ffffffffffffffffffffffffffffffffffffffff1681526020019081526020016000206000828254610a319190610ee0565b9250508190555050565b60008054906101000a900473ffffffffffffffffffffffffffffffffffffffff1673ffffffffffffffffffffffffffffffffffffffff163373ffffffffffffffffffffffffffffffffffffffff1614610ac9576040517f08c379a0000000000000000000000000000000000000000000000000000000008152600401610ac090611018565b60405180910390fd5b80600260003073ffffffffffffffffffffffffffffffffffffffff1673ffffffffffffffffffffffffffffffffffffffff1681526020019081526020016000206000828254610b189190610ee0565b9250508190555050565b60026020528060005260406000206000915090505481565b6000600360003073ffffffffffffffffffffffffffffffffffffffff1673ffffffffffffffffffffffffffffffffffffffff16815260200190815260200160002054905090565b600080fd5b6000819050919050565b610b9981610b86565b8114610ba457600080fd5b50565b600081359050610bb681610b90565b92915050565b600060208284031215610bd257610bd1610b81565b5b6000610be084828501610ba7565b91505092915050565b600073ffffffffffffffffffffffffffffffffffffffff82169050919050565b6000610c1482610be9565b9050919050565b610c2481610c09565b8114610c2f57600080fd5b50565b600081359050610c4181610c1b565b92915050565b600060208284031215610c5d57610c5c610b81565b5b6000610c6b84828501610c32565b91505092915050565b610c7d81610b86565b82525050565b6000602082019050610c986000830184610c74565b92915050565b610ca781610c09565b82525050565b6000602082019050610cc26000830184610c9e565b92915050565b7f4e487b7100000000000000000000000000000000000000000000000000000000600052601160045260246000fd5b6000610d0282610b86565b9150610d0d83610b86565b9250817fffffffffffffffffffffffffffffffffffffffffffffffffffffffffffffffff0483118215151615610d4657610d45610cc8565b5b828202905092915050565b600082825260208201905092915050565b7f54686520707269636520796f752061726520747279696e6720746f207061792060008201527f6973206e6f7420656e6f75676820666f722074686520616d6f756e74206f662060208201527f646f6e75747320796f752061726520747279696e6720746f2062757920000000604082015250565b6000610de4605d83610d51565b9150610def82610d62565b606082019050919050565b60006020820190508181036000830152610e1381610dd7565b9050919050565b7f536f7272792120446f6e2774206861766520656e6f75676820646f6e7574732060008201527f746f2066756c66696c6c20796f757220726571756573742e0000000000000000602082015250565b6000610e76603883610d51565b9150610e8182610e1a565b604082019050919050565b60006020820190508181036000830152610ea581610e69565b9050919050565b6000610eb782610b86565b9150610ec283610b86565b9250828203905081811115610eda57610ed9610cc8565b5b92915050565b6000610eeb82610b86565b9150610ef683610b86565b9250828201905080821115610f0e57610f0d610cc8565b5b92915050565b7f536f7272792120446f6e2774206861766520656e6f756768207265667265736860008201527f65727320746f2066756c66696c6c20796f757220726571756573742e00000000602082015250565b6000610f70603c83610d51565b9150610f7b82610f14565b604082019050919050565b60006020820190508181036000830152610f9f81610f63565b9050919050565b7f536f7272792120796f7520617265206e6f7420746865206f776e657220616e6460008201527f206f6e6c7920746865206f776e65722063616e20726573746f636b2e00000000602082015250565b6000611002603c83610d51565b915061100d82610fa6565b604082019050919050565b6000602082019050818103600083015261103181610ff5565b9050919050565b7f54686520707269636520796f752061726520747279696e6720746f207061792060008201527f6973206e6f7420656e6f75676820666f722074686520616d6f756e74206f662060208201527f4c617973207061636b657420796f752061726520747279696e6720746f20627560408201527f7920000000000000000000000000000000000000000000000000000000000000606082015250565b60006110e0606283610d51565b91506110eb82611038565b608082019050919050565b6000602082019050818103600083015261110f816110d3565b9050919050565b7f536f7272792120446f6e2774206861766520656e6f756768204c61797320706160008201527f636b657420746f2066756c66696c6c20796f757220726571756573742e000000602082015250565b6000611172603d83610d51565b915061117d82611116565b604082019050919050565b600060208201905081810360008301526111a181611165565b905091905056fea2646970667358221220cfe50bda20228bc255dbc48d55ca1a3be95f0574ffe7598d65146c0febdc9d7b64736f6c63430008100033",
  "immutableReferences": {},
  "source": "//SPDX-License-Identifier: MIT\r\n//(License means open source)\r\n\r\npragma solidity ^0.8.16;\r\n\r\ncontract VendingMachine {\r\n    address public owner;\r\n\r\n    //To keep record how many refresher a particular address has.\r\n    mapping(address => uint256) public refresherCount;\r\n\r\n    //To keep record how many donuts a particular address has.\r\n    mapping(address => uint256) public dounutCount;\r\n\r\n    //To keep record how many lays a particular address has.\r\n    mapping(address => uint256) public laysCount;\r\n\r\n    constructor() {\r\n        owner = msg.sender; //This will store the address of the person of deployed the smart constract\r\n\r\n        refresherCount[address(this)] = 55; //Initially number of refresher present in Vending Machine.\r\n        dounutCount[address(this)] = 50; //Initially number of donut present in Vending Machine.\r\n        laysCount[address(this)] = 70; //Initially number of Lays present in Vending Machine.\r\n    }\r\n\r\n    function getRefresherStockLeft() public view returns (uint256) {\r\n        return refresherCount[address(this)]; //Will return the amount of refresher left in vending machine.\r\n    }\r\n\r\n    function getDonutStockLeft() public view returns (uint256) {\r\n        return dounutCount[address(this)]; //Will return the amount of refresher left in vending machine.\r\n    }\r\n\r\n    function getLaysStockLeft() public view returns (uint256) {\r\n        return laysCount[address(this)]; //Will return the amount of refresher left in vending machine.\r\n    }\r\n\r\n    // Given functions let the owner restock the vending machine\r\n\r\n    function restockRehresher(uint256 refresherPieces) public {\r\n        require(\r\n            msg.sender == owner,\r\n            \"Sorry! you are not the owner and only the owner can restock.\"\r\n        );\r\n        refresherCount[address(this)] += refresherPieces;\r\n    }\r\n\r\n    function restockDonut(uint256 donutPieces) public {\r\n        require(\r\n            msg.sender == owner,\r\n            \"Sorry! you are not the owner and only the owner can restock.\"\r\n        );\r\n        dounutCount[address(this)] += donutPieces;\r\n    }\r\n\r\n    function restockLays(uint256 laysPieces) public {\r\n        require(\r\n            msg.sender == owner,\r\n            \"Sorry! you are not the owner and only the owner can restock.\"\r\n        );\r\n        laysCount[address(this)] += laysPieces;\r\n    }\r\n\r\n    // function for purchasing Refreshers from the vending machine\r\n\r\n    function numberOfRefresher(uint256 amountRefresher) public payable {\r\n        //Functions and addresses declared payable can receive ether into the contract.\r\n        require(\r\n            msg.value >= amountRefresher * 0.002 ether,\r\n            \"The price you are trying to pay is not enough for the amount of donuts you are trying to buy \"\r\n        );\r\n\r\n        require(\r\n            refresherCount[address(this)] >= amountRefresher,\r\n            \"Sorry! Don't have enough refreshers to fulfill your request.\"\r\n        );\r\n\r\n        refresherCount[address(this)] -= amountRefresher;\r\n\r\n        refresherCount[msg.sender] += amountRefresher;\r\n    }\r\n\r\n    // function for purchasing Donuts from the vending machine\r\n\r\n    function numberOfDonut(uint256 amountDonut) public payable {\r\n        //Functions and addresses declared payable can receive ether into the contract.\r\n        require(\r\n            msg.value >= amountDonut * 0.002 ether,\r\n            \"The price you are trying to pay is not enough for the amount of donuts you are trying to buy \"\r\n        );\r\n\r\n        require(\r\n            dounutCount[address(this)] >= amountDonut,\r\n            \"Sorry! Don't have enough donuts to fulfill your request.\"\r\n        );\r\n\r\n        dounutCount[address(this)] -= amountDonut;\r\n\r\n        dounutCount[msg.sender] += amountDonut;\r\n    }\r\n\r\n    // function for purchasing Purchase Lays from the vending machine\r\n\r\n    function numberOfLays(uint256 amountLays) public payable {\r\n        //Functions and addresses declared payable can receive ether into the contract.\r\n        require(\r\n            msg.value >= amountLays * 0.001 ether,\r\n            \"The price you are trying to pay is not enough for the amount of Lays packet you are trying to buy \"\r\n        );\r\n\r\n        require(\r\n            laysCount[address(this)] >= amountLays,\r\n            \"Sorry! Don't have enough Lays packet to fulfill your request.\"\r\n        );\r\n\r\n        laysCount[address(this)] -= amountLays;\r\n\r\n        laysCount[msg.sender] += amountLays;\r\n    }\r\n}\r\n",
  "sourcePath": "D:\\VIT\\Semester 5\\Blockchain\\J Component\\vending_machine\\vending-machine\\contracts\\VendingMachine.sol",
  "compiler": {
    "name": "solc",
    "version": "0.8.16+commit.07a7930e.Emscripten.clang"
  },
  "schemaVersion": "3.4.9",
  "updatedAt": "2022-11-09T13:59:50.132Z",
  "networkType": "ethereum",
  "devdoc": {
    "kind": "dev",
    "methods": {},
    "version": 1
  },
  "userdoc": {
    "kind": "user",
    "methods": {},
    "version": 1
  }
}